:020000040800F2
:10000000484D0020513F0008ED3F0008F13F000837
:10001000F53F0008F93F0008FD3F00080000000020
:100020000000000000000000000000002B27000876
:100030000140000800000000E526000885260008B1
:1000400005400008094000080D4000081140000864
:1000500015400008194000081D4000082140000814
:1000600025400008294000082D40000831400008C4
:1000700035400008394000083D4000084140000874
:1000800045400008494000084D4000085140000824
:1000900055400008594000085D40000861400008D4
:1000A00065400008694000086D4000087140000884
:1000B00075400008794000087D4000088140000834
:1000C00085400008894000088D40000891400008E4
:1000D0009540000899400008DF3600089D40000860
:1000E000A1400008A5400008A94000082DE9F14FF3
:1000F000B0B0924604910DF142013A9A2B91994683
:100100004A7000200AE01AF8011B0498309A9047C0
:100110000028049000F0A6860D98401C0D909AF8D7
:10012000000050B12528EED100210022079108924D
:1001300009910A920B910C9204E00D9800F094BE84
:1001400041F001011AF8010F2028F9D023280CD022
:100150002B2804D02D2805D0302809D00BE041F001
:100160000201EFE741F00401ECE741F00801E9E7A3
:1001700041F01001E6E72A280FD1D9F8002052F803
:10018000040BC9F8002000280F9003D540420F90BF
:1001900041F004010AF1010A14E00F92DFF824385B
:1001A0000AE00F98984205DA00EB800402EB440263
:1001B000303A0F920AF1010A9AF80020A2F13000B9
:1001C0000A28EED39AF800002E2803D04FF0FF3211
:1001D0000E9229E01AF8010F2A2809D1D9F8000057
:1001E00050F8042BC9F800000E920AF1010A1BE036
:1001F0002D280CBF0AF1010A002000220E92DFF820
:10020000C4470BE040B90E9AA24205DA02EB820520
:1002100003EB4503303B0E930AF1010A9AF80030D4
:10022000A3F130020A2AEDD3ADF84010DFF89807A9
:10023000784400F294709AF8001000F047FF08B17B
:100240001AF8010B8DF842009DF84200682805D18C
:100250009AF8000068280CD1622106E06C2804BFDF
:100260009AF800006C2804D171218DF842100AF12F
:10027000010A12A806901AF801BBBBF125012CD087
:100280001C3900F0CF81091F022940F2CB811339BC
:1002900000F01385093900F0C581891E00F0A8859A
:1002A000491E00F05585491E022940F2BB81091FF5
:1002B00000F04E85491F00F02881491E00F0FD84A2
:1002C000491E00F0D080C91E0DD0891E00F0F584B3
:1002D000C91E00F0F28400F096BD25238DF8483049
:1002E000012100F09BBDD9F8000050F8044BC9F87B
:1002F0000000002C059440F0A3802B99487800283A
:1003000000F099804FF0FF340FF6643000F000FFEA
:10031000201A40F0A78500F082BD6D1E40F099853F
:100320003096079D12AF75B1309E17F8012B02A9C8
:10033000304600F063FE002801D46D1EF5D1002880
:10034000309640F08F850A9D3020002D8DF80400F6
:100350000CDD309E012301AA02A9304600F05EFEAA
:10036000002840F07F856D1EF4D13096059F089DD2
:1003700075B1309E17F8012B02A9304600F03EFE01
:10038000002801D46D1EF5D10028309640F06A8512
:100390000B9D3020002D8DF804000CDD309E0123D4
:1003A00001AA02A9304600F039FE002840F05A8523
:1003B0006D1EF4D1309605980899099D471875B1BE
:1003C000309E17F8012B02A9304600F017FE0028D6
:1003D00001D46D1EF5D10028309640F043850C9D68
:1003E0003020002D8DF804000CDD309E012301AA81
:1003F00002A9304600F012FE002840F033856D1E41
:10040000F4D130969DF8400041077FF588AE20205A
:10041000002C8DF804007FF782AE309D012301AAE5
:1004200002A9284600F0FAFD002840F01B85641E52
:10043000F4D1309573E60FF64440059000F0EFBC20
:100440000E9D002D04D5204600F082FE044607E0F4
:100450002A46204600F09CFE002814BF041B2C46B0
:10046000089400F0DCBCD9F8001051F8040BC9F86E
:10047000001020F00004002121F0FF3512ABCDE97F
:1004800002450593DDE9022306993C2413B90AB914
:100490000E9898B102F00F053035641EEEB23A2E78
:1004A000A8BF2735120942EA03721B090D5508BF80
:1004B000002A03D005980D19A842EBD3081905901E
:1004C000C4F13C020E98089282420ADABDF840104C
:1004D000821A4FF6EF7001400A92ADF8401000F01A
:1004E0009EBC002840F19B849DF8400000F0140061
:1004F000102840F094840F9B07990A985B1A1B1AE6
:100500009A1A002A40F38B84D5E32B99487820B1BE
:100510004FF0FF340FF63430F8E69DF842006228C1
:1005200061D0682817D06A283FD06C2806D071287F
:1005300047D074282CD07A281DD064E0D9F8001058
:1005400051F8040BC9F80010002868D14FF0FF34AF
:100550000FF61030DAE6D9F8001051F8040BC9F89C
:10056000001020B94FF0FF340FF6F820CEE60D99B9
:10057000018000F054BCD9F8001051F8040BC9F800
:10058000001000284BD14FF0FF340FF6D820BDE605
:10059000D9F8001051F8040BC9F8001000283ED11A
:1005A0004FF0FF340FF6BC20B0E6D9F8001051F838
:1005B000040BC9F8001080B94FF0FF340FF6A420E7
:1005C000A4E6D9F8001051F8040BC9F8001020B9BE
:1005D0004FF0FF340FF68C2098E60D9AD317C0E940
:1005E000002300F01CBCD9F8001051F8040BC9F826
:1005F000001020B94FF0FF340FF6682086E60D9901
:10060000017000F00CBCD9F8001051F8040BC9F8C7
:10061000001020B94FF0FF340FF6482076E60D9910
:100620000160FCE3D9F80020D21D22F00702C9F8CE
:100630000020D2E900010832C9F80020CDE902010A
:10064000C80F02D007982D210AE0BDF840008107AD
:1006500002D507982B2103E0C00705D50798202174
:1006600012AA1154401C079012A807994BF02002BF
:100670004318DDE90201CDE92C01612A059321AC83
:100680000BD00E98002802D506200E9005E001BF81
:100690004BF02000672801210E91DDE9020148009E
:1006A0004015401C0A460DD109030BD0ABF1610582
:1006B00003201A2D089002D20FF6C4110DE00FF698
:1006C000C4110AE070B912030CD1ABF1610503202B
:1006D0001A2D08901AD30FF6B4110322184600F011
:1006E00083FD9CE3DDE90201CDE92E01DDE92E2346
:1006F00023F00047B7F5801F22F000060DD200223C
:10070000002F08BF002E009203D116E00FF67811DB
:10071000E3E76A4600F0BCFD0FE0DFF8C008DFF851
:10072000C01800EB17500090DDE92E234FF0FF308A
:100730001940DFF8B07810403943CDE902014BF0A1
:10074000200061280DD1059830210170821CBBF179
:10075000610F05920CBF7821582141700798801CC9
:100760000790DDE9020120F0000231F0004308BFEC
:10077000002A02D10026002568E14BF02008B8F1DC
:10078000610F40F0B4800E98002847BF21210191ED
:10079000401C0190019FDDE92C017F1C00220023F9
:1007A000DDE9024500F0ACFD00998DF8842038BFEA
:1007B00085F00045091F002F00910DF1850653DDDE
:1007C000204629460022002300F0B2FD4CD248000A
:1007D000400D00F11C0312D0002B10DD40F2FF7021
:1007E000834206DBDFF8001805F0004211430020C9
:1007F00011E06FF31E5141EA035120460BE024F053
:10080000000035F0004108BF00280FBF29461C2218
:10081000294600F0A5FD04460D4600F03FFEFF1FEF
:10082000002F804609DD00F057FE02460B462046A9
:10083000294600F063FE04460D46F01D0721B8F17D
:10084000000F0CDD491E5EBF08F00F0200F8012DFD
:100850004FEA2818F3D502E0002200F8012D491EC6
:10086000FAD5C61D002FABDC0DF18500361A0198B4
:100870008642D8BF304600280DF1850430D4B042FE
:1008800006DA0DF185010A5C082AA8BF0F2100DAFB
:100890000021024621AB134400E0401E13F8015929
:1008A000521E8D42F9D00F2904D10DF185018B5CC8
:1008B0005B1C8B54002A04D50099091D21AC401CF7
:1008C0000091411E0CD46218ABF13A061378303314
:1008D000DDB23A2DA8BFF318491E02F80139F5D54B
:1008E0000E99002940F1B080421E0E92ACE00099B2
:1008F000DFF8F82647F29750414391FBF2F2DDE929
:100900002C45009225F00045D2F1070204DD204677
:10091000294600F040FB0BE052420020DFF8D016E1
:1009200000F039FB02460B462046294600F058FEEF
:100930000446B8F1660F0E9806BF009F0A370627D7
:100940003F18142FC8BF142730200D468DF884009F
:100950000DF18506002F39DD2046294600F064FFA1
:1009600001460A4606F1080304200A26B2FBF6F601
:1009700006EB860EA2EB4E02303203F8012C0A225F
:10098000B6FBF2F202EB820EA6EB4E063036401EAC
:1009900003F8026DE9D1083F002F03F10806D9DD05
:1009A000084600F055FF02460B462046294600F057
:1009B000A5FD0022DFF83C3600F058FF04460D4646
:1009C000CAE700BFCBCCCC0C1C3600000DF1850073
:1009D000361A0DF1850404E00098401E761E009042
:1009E000641C20783028F7D0B8F1660F02D1009946
:1009F000491C04E0B8F1650F0CBF012100210E98DD
:100A000008188642B8BF701E00281DD4B04204DA10
:100A1000215C3429C8BF392100DC30210246631E25
:100A20009D1800E0401E15F80169521E8E42F9D053
:100A3000392902D1A15C491CA154002A04D500998E
:100A4000491C1C46401C00910646009D0E9F30B27A
:100A5000002802DC01260FF238644BF020006628E3
:100A600008BF6D1C15D067280FFA85F841D118F121
:100A7000040F44DBB84542DA9DF840006D1C0107C5
:100A800003D430B2B842B8BF074628B23F1A48BFB5
:100A900000270FFA85F8B8F1000F00F3AF8008982F
:100AA000411C0891302205990A54002F03DC9DF85F
:100AB0004000010705D50898411C08912E22059990
:100AC0000A5417EB080FB8BF7D4228B2C51932B2DD
:100AD000414295420B91B8BF2E46059B089836B20D
:100AE000099632462146184400F07EFBAD1B0C955A
:100AF000CCE0BBF1610F15D14FF0700B17E030B2B5
:100B0000B84204DA9DF840100A0758BF07467F1E16
:100B100048BF0027BBF1670F14BF4FF0450B4FF0E4
:100B2000650B04E0BBF1410F08BF4FF0500B089874
:100B3000411C0891002F059914F8012B0A5403DC7D
:100B40009DF84000010719D50898411C08912E22F4
:100B500005990A54002F11DD761E30B287420598A0
:100B6000089BB8BF3E4632B22146184400F03CFB19
:100B7000089836B23018BF1B08900B970598089953
:100B80000844B8F1000F80F800B003D42B22427063
:100B9000821C04E02D2145464170821C6D420021DB
:100BA0002CAB28460AE004460A2094FBF0F000EB48
:100BB0008005A4EB450403F8014B491C00B2002852
:100BC000F1DC012906DC4BF02000652804BF302051
:100BD00002F8010B00292CAB08D1302002F8010BE0
:100BE00006E0491E585C303002F8010B0029F8DCA1
:100BF000059908980844121A099247E030B229B2C0
:100C000088421BDA0598089B32B22146184400F04E
:100C1000EBFA089936B27118A8EB0606002F089176
:100C20000B9603DC9DF84000020705D5059A2E209F
:100C300050540999491C09910C9727E00598089B85
:100C40002AB22146184400F0CFFA0898761B404497
:100C5000002F089003DC9DF840100A0704D5411CC2
:100C600008912E2205990A5430B287420598089BB4
:100C7000B8BF3E4632B204EB0801184400F0B4FAA3
:100C8000089836B23018BE1B08900B969DF84000AD
:100C900000F01400102840F0C280079A08990B98C1
:100CA0008A18099982180C988A1882180F9882421B
:100CB00080F2B580821A0A92B1E09DF84200622863
:100CC00008D068280ED06A2814D06C281FD071284C
:100CD00010D01CE0D9F8001051F8040BC9F800102E
:100CE000C0B21AE0D9F8001051F8040BC9F800108E
:100CF00080B212E0D9F80020D21D22F00702C9F814
:100D00000020D2E900010832C9F8002006E0D9F835
:100D1000001051F8040BC9F800100021CDE90201C0
:100D20009DF8400001075AD5DDE90223002B08BFDA
:100D3000002A54D04BF02000782850D1079812A9EF
:100D400030220A54401C431C079301F800B046E0CF
:100D50009DF84200622808D068280ED06A2814D076
:100D60006C281FD0712810D01CE0D9F8001051F861
:100D7000040BC9F8001040B21AE0D9F8001051F87D
:100D8000040BC9F8001000B212E0D9F80020D21DFF
:100D900022F00702C9F80020D2E900010832C9F8A0
:100DA000002006E0D9F8001051F8040BC9F8001033
:100DB000C117CDE90201002902D507982D210AE0CB
:100DC000BDF84000810702D507982B2103E0C0073A
:100DD00005D50798202112AA1154401C079012A88B
:100DE00007990144059102A8594600F04FF816E012
:100DF00001200790D9F8000050F8041BC9F8000042
:100E00008DF848100BE025210122BBF1000F8DF871
:100E10004810079203D08DF849B0022107910F9A2C
:100E200007980A990C9C121A0898521A0B99121AD0
:100E30000998521A121A9DF84000141B41073FF5F9
:100E400070AA2020002C8DF804007FF76AAA309E3B
:100E50002546012301AA02A9304600F0DFF8002848
:100E60003FF45BAA4FF0FF3031B0BDE8F08F0000D7
:100E70007072696E74665F733A20626164202573D4
:100E800020617267756D656E740000002DE9FC438A
:100E900007466F293E6908BF082405D041F02000AD
:100EA000782814BF0A2410243C25D7E9002364299C
:100EB00018BF69299046994605D1002B03D5D8F172
:100EC000000869EB4909B9F1000F08BFB8F1000F3C
:100ED0000CD1386B50B9082C39D197F8380001077C
:100EE00035D530203B2586F83B0030E08DF80010EA
:100EF000404649462246E31700F08AFD3032D0B220
:100F00006D1E3A28019504DB9DF80000A0F1510107
:100F10008A187255404649462246E31700F078FD8C
:100F200080465FEA010908BFB8F1000F03D0F868F6
:100F300071198842DCD3082C09D197F838000107D1
:100F400005D5705D302802D06D1E30207055C5F17A
:100F50003C02BA617119F960386B824208DA821A70
:100F60003A624FF6EF70398F01403987BDE8F3835D
:100F700000280ED597F8380000F01400102808D18A
:100F80007B6B7969386A5B1A1B1A9A1A002AC8BFE8
:100F90003A62BDE8F3832DE9D04306460F46144676
:100FA0004FF00008DFF8509012E0E00707D5424606
:100FB0004B463046394600F059FC06460F4640463F
:100FC000494642464B4600F051FC64108046894633
:100FD000002CEAD130463946BDE8D08302FCFFFF41
:100FE000FFFF0F800000E03F0000F07FA0860100BF
:100FF0000000F03F84D797410000244010B503461D
:101000000C461146A0689847A06020B1E06A401CD9
:10101000E062002010BD4FF0FF3010BDF8B505466E
:101020000E4617461C4600205CB117F8011BB0683D
:10103000A847B06030B1F06A401CF0620020641E26
:10104000F3D1F2BD4FF0FF30F2BD00007072696E57
:1010500074665F733A20256E20646973616C6C6FEF
:10106000776564007072696E74663A20626164200C
:10107000256E20617267756D656E7400000000005A
:101080006E616E004E414E00696E6600494E46002C
:10109000300030B4002513E050F8042BD30744BFD0
:1010A000A9F101039A18091F042942F8045BFAD236
:1010B00013468C0744BF15809B1CC90748BF1D7091
:1010C00050F8041B0029E7D130BC7047C9B2027840
:1010D0008A421AB11CBF10F8012FF9E718BF00208F
:1010E000704730B40EE00268436802440830DC0701
:1010F00044BFA9F10104E31852F8045B43F8045B10
:10110000091FF9D150F8041B0029ECD130BC7047FD
:1011100080B500B906A005490B681BB12222002149
:10112000984701E000F08CFD222002BD3C450020E4
:10113000636F6E73747261696E742068616E646C43
:1011400065723A20626164206D6573736167650042
:1011500000F10103810704D010F8011B820781B15F
:10116000FAD10268A2F10131914311F0803104BF3C
:1011700050F8042FF6E709BAB1FA81F100EBD1007B
:10118000401CC01A70470268531C036011707047FE
:10119000C9B2830706D0521E22D310F8013B9942F0
:1011A000F7D11FE0083A13D302F1040241EA01210A
:1011B00041EA014150F8043B121F21BF4B40A3F10B
:1011C000013C2CEA030C1CF0803FF3D0C9B2001F95
:1011D000083210F8013B521E28BF91EA030FF8D8DD
:1011E00018BF0120401E704762B38B0708D0521E03
:1011F00011F8013B00F8013B00F024808B07F6D189
:10120000830740F0208000BF103A07D330B4B1E824
:101210003810103AA0E83810F9D230BC530724BF78
:10122000B1E80810A0E8081044BF51F8043B40F8AA
:10123000043BD20724BF31F8022B20F8022B44BF15
:101240000B7803707047121F17D35B0009D151F858
:10125000043B20F8023B1B0C121F20F8023BF6D285
:101260000BE051F8043B00F8013B1B0A20F8023B5D
:101270001B0C121F00F8013BF3D238BF121D521E87
:1012800024BF11F8013B00F8013BF8D8704700007B
:1012900010B5144600F002F8226010BDC1F30A53E5
:1012A00043B14A0012F5001F28D2A3F2FE32A1EB8F
:1012B0000251704750EA410C20D001F0004C31EA55
:1012C0000C01B1FA81F204BFB0FA80F3D2180B3AE4
:1012D000B2F120032CBF00FA03F1914041EA0C0166
:1012E0003EBFC2F1200C20FA0CF319439040524249
:1012F00040F2FD33D21A01EB0351704700227047D0
:101300004FF4001C1CEB410F94BF1CEB430F09E092
:1013100041EA030C50EA4C0C52EA0C0C03D29942FD
:1013200008BF9042704714BF8B4282427047000052
:101330004FF4001C1CEB410F94BF1CEB430F09E062
:1013400041EA030C50EA4C0C52EA0C0C03D28B42DB
:1013500008BF8242704714BF994290427047000014
:10136000124254D440F2FF7C1CEA11530FD0634563
:1013700031D09B1863453CBF01EB0251704701F02F
:10138000004141EA0C510020AFF30080704750EA61
:10139000410320D001F0004C91EA0C011CD0B1FABD
:1013A00081F30B3B9A420DD9D21A994051EA0C01B4
:1013B000C3F1200C20FA0CFC61449840531C40F20D
:1013C000FF7CD7E7914041EA0C01C2F1200C20FAE2
:1013D0000CF3194390407047B0FA80F31533202B7B
:1013E000E0D3202AEED3203A203B9A4209D9D21AE0
:1013F00000FA03F141EA0C010020531C40F2FF7C8B
:10140000B8E700FA02F141EA0C01002070475242AD
:1014100040F2FF7C1CEA11530DD06345DBD0B2EBE8
:10142000030C3CBFA1EB025170470CF1010221EA11
:10143000035141F4801150EA410CCCD001F0004C32
:10144000352A27DC30B481EA0C01B2F1200309DA35
:10145000C2F12003044601FA03F5D0402843D140ED
:101460009C400CE0C3F12002450020FA03F418BFB1
:1014700044F0010421FA03F091400C43002174F17F
:10148000004550F1000051EB0C01244230BC7FF4C8
:101490007BAF70476146002076E70000C1F30A5336
:1014A00040F2FE329B1A14DDD3F120034FEAE172C1
:1014B00008DDC90241EA505141F00040D84080188F
:1014C0005040704703F2E13010B1D24382F0004047
:1014D0007047002070470000C11768B14840401AAB
:1014E000B0FA80F29040D21CC907C2F5846241EA8A
:1014F000025202EBD02140057047000070B44FF05B
:10150000004591EA030F40F1A7836B40841A71EB09
:10151000030603D2001BB141121973414FF4001CA2
:101520001CEB410F34BF7CEB430442E00C0DA4EBF9
:101530001356352E4FDC45EAC323DB0A45EAC121A9
:10154000C912B6F120050DDD63FA05F6EB4086EA17
:101550000305124218BF45F00105C01851F1000102
:101560000CD213E062FA06F5F2405540F3415A40BE
:10157000B340F3405A408018594107D349085FEA05
:1015800030005FEA350528BF45F0010501F58011FF
:10159000420875F1004250F1000041EB04514E0049
:1015A00016F5001F70BC38BF70470020090D0905F3
:1015B00070471CEB410F10D252EA43060BD0BCEB34
:1015C000410F05D80C0DAB43661E342EB6DD02E08C
:1015D000AB438018594170BC704770BC7047000025
:1015E000F0B540F2FF7581EA030C0CF0004C15EAEF
:1015F00011541DBF15EA1357AC42AF42E5E0BC41A0
:10160000C1F31301C3F31303801A994143F4801308
:1016100004D2641E4000494180185941C90241EA80
:101620005051B1FBF3F603FB1611A2FB0675D7EB85
:10163000C020A94102D2761E80185941C90241EA50
:101640005051B1FBF3FE03FB1E11A2FB0E75D7EB4D
:10165000C020A94103D2AEF1010E80185941890280
:1016600041EA9051760546EA8E2EB1FBF3F603FB74
:101670001611A2FB0675D7EB8020A94102D2761E77
:1016800080185941C90241EA50514EEA060EB1FB99
:10169000F3F603FB1611A2FB0675D7EBC020A94198
:1016A00002D2761E80185941C90241EA5051B1FB5D
:1016B000F3F703FB1711A2FB0735D3EBC020A941B9
:1016C00067F100070CBF004247F0010766F3D5271A
:1016D0004FEA1E31B80814F5806412DDBD0775F1BC
:1016E000004250EB0E5051EB045111F5801F5CBFCE
:1016F00041EA0C01F0BD4CF07F6141F0E041002077
:10170000F0BDBD076D0840EA0E5041F48011D4F1E0
:101710000104B4F120060ADAC4F120060200E04018
:1017200001FA06F3E1401843B24015430EE0342CB1
:1017300013DCC6F1200445EA40056D0820FA06F2E4
:10174000154321FA06F0A1400D43002175F1004236
:1017500050F1000051EB0C01F0BD00205FEA0C01DC
:10176000F0BDCFB992185B41B3FA83F704BFB2FA68
:1017700082F6BF190B3FB7F120062FBF02FA06F31E
:10178000BB40C7F1200622FA06F638BF3343BA4001
:101790001CB1E419641E33E77F4231F00041B1FA15
:1017A00081F404BFB0FA80F6A4190B3CB4F1200612
:1017B0002FBF00FA06F1A140C4F1200620FA06F678
:1017C00038BF3143A0403C1B1AE7AC421ABF05EAC0
:1017D0001357AF4212E050EA41061CBF52EA4306DB
:1017E000BFE750EA4107304661461CBF41EA055158
:1017F000F0BD52EA430C08BFC143F0BD00204FF4D6
:10180000001616EB410F98BF16EB430F08BF16EBFF
:10181000410F24BFC14305E016EB430F0CBF6146E7
:101820004CEA0551F0BD0000400D491840EA812006
:101830000CD2490DA1F58061491C40F0004005DB48
:10184000D1F11F0154BFC840C01770470020704736
:10185000014648B1B0FA80F18840C91CC1F58461E5
:10186000090501EBD021400570470000B0B581EAC1
:10187000030C0CF0004C40F2FF7515EA11541DBF2B
:1018800015EA1357AC42AF4239E0E41923EA455355
:1018900043F48013C90241F0004141EA505EC7029F
:1018A0001100A7FB020200284FF00000EEFB012010
:1018B0004FF00001E3FB072118BF42F0010240187E
:1018C00000214941E3FB0E01A4F580640F0302D21D
:1018D00052004041494154F101046CDD470872F166
:1018E000004250F1000051EB0451A1F580115CBFA2
:1018F00041EA0C01B0BD4CEA05510020B0BD05EA3B
:101900001357AC4214BFAF4241E050EA410E1CBF36
:1019100052EA430E02E061460020B0BD24423C443E
:101920001BD15FEA070EF6D0090302BF0146002073
:10193000AEF1140EB1FA81F7AEEB070401FA07FE1F
:101940000C37C7F1200100FA07F7C8404EEA000E35
:1019500023EA455343F48013A2E733F00043B3FA7C
:1019600083F704BFB2FA82FE77440B3FE41BB7F162
:10197000200E2FBF02FA0EF3BB40C7F1200E22FA51
:101980000EFE38BF43EA0E03BA40641C82E750EAF9
:10199000410E14BF52EA430E6FF000014FF40017DE
:1019A00017EB430F8ABF194617EB410FB5E74CEA17
:1019B00005510020B0BDD4F10104B4F120070FDAC5
:1019C000C4F12007520828BF42F0010210FA07F5BF
:1019D00001FA07F7E1BF2A43E0403843E1400FE056
:1019E000352C98DCC7F1200452EA400220FA07F2B5
:1019F00018BF42F0010231FA07F0A1400A4300216A
:101A000072F1004250F1000051EB0C01B0BD00003A
:101A1000BBBBE1B1B2F5803F80F07E80022A1ED9C7
:101A20008C46B1FBF2F102FB11C31B0443EA1043E5
:101A3000B3FBF2FC02FB1C3380B240EA0343B3FB6E
:101A4000F2F002FB103240EA0C4000237047022AF9
:101A500005D98446B0FBF2F002FB10C270474AB1D0
:101A600005D100F0010249085FEA3000704700220A
:101A70000023704700F0A6B90B00020000210020EF
:101A80007047904271EB030CF6D3B3F5803F2FD231
:101A9000F0B5B3FA83F7B1FA81F4A7F10F0E3D1B4D
:101AA0005340CEF1200602FA0EF2F3415340B5F155
:101AB0000F0746D80F3C2C444140C4F12006A040FB
:101AC000F1414140B1FBF3F603FB1611A2FB0645C1
:101AD000001BA94102D2761E8018594180EA0102FA
:101AE00021FA0EF362FA0EF200215A403046F0BDA0
:101AF00030B4B1FBF3FC03FB1C11A2FB0C45001B33
:101B0000A94103D2ACF1010C8018594130BC024606
:101B10000B46604600217047B2F1807F65D3F0B577
:101B2000B2FA82F7B1FA81F4C7F10F063D1B22FA2F
:101B300006F307F1110EF24120355A40B5F10F07B7
:101B4000B8D94140C4F12006A040F1414140B1FB69
:101B5000F3FC03FB1C11A2FB0C45001BA94103D2A3
:101B6000BCF1010C801859410F2F12D30F3FC9034C
:101B700041EA5041B1FBF3F603FB1611A2FB064507
:101B8000D4EBC030A94102D2761E8018594146EAF2
:101B9000CC3C07B34140C7F12006B840F141414079
:101BA000B1FBF3F603FB1611A2FB0645001BA9418E
:101BB00002D2761E8018594180EA010221FA0EF302
:101BC000C7F1200462FA0EF20CFA07F05A402CFA20
:101BD00004F13043F0BD80EA010221FA0EF3002146
:101BE00062FA0EF260465A40F0BD8C46B1FBF2F14B
:101BF00002FB11C31B0243EA1063B3FBF2FC02FBBE
:101C00001C331B024CEA002043EA1063B3FBF2FCD6
:101C100002FB1C331B024CEA002043EA1063B3FBB7
:101C2000F2FC02FB1C331B024CEA002043EA106367
:101C3000B3FBF2FC02FB1C324CEA0020002370478D
:101C4000012000F0C1B8000070B44FF0004591EAE7
:101C5000030F7FF55BAC6B40841A71EB030604D273
:101C60006E40001BB141121973414FF4001C1CEB74
:101C7000410F34BF7CEB430683E00C0DA4EB1356FD
:101C8000362E00F37C80012E45EAC32341DC43EA73
:101C9000525312BFD20292025B08240545EAC121C9
:101CA00041EA5051D2EBC020994125D407D1B0FA76
:101CB00080F610FA06F162D00020203608E0B1FA72
:101CC00081F6B140C6F1200220FA02F21143B04081
:101CD0004FEAF474B4EB465434F001064FEA74044E
:101CE0000AD8D6F50016760D04F00044F04061FAEB
:101CF00006F25040F1404840C00A40EA415021F00D
:101D0000004128BF5FEA500550F1000044EBD121AB
:101D100035E0DB0A45EAC121C90AB6F120050EDD2E
:101D200042EA0242120CC5F1200603FA06F6EB4025
:101D300042EA06056D42984161F100010DE062FA48
:101D400006F5F240554063FA06FC82EA0C02F340C5
:101D50005A406D42904161EB030111F4801F05D19F
:101D6000641E620502D06D004041494121F480119A
:101D7000430875F1004350F1000041EB045170BC81
:101D800070471CEB410F15D223F0004352EA430683
:101D90000BD04FEA4C0CBCEB410F04D80C0D661E67
:101DA000342EB7DDEBE7801A994150EA410608BFAF
:101DB0000021E4E708BF1CEB430F28BF6FF00001D0
:101DC000DDE700007047000080B500F007F8024A28
:101DD00011001820ABBEFBE72600020010B500F092
:101DE00013F8020000230024E4431068A04203D04B
:101DF00011000220ABBE13605068A04203D0111D39
:101E00000220ABBE536010BD0148704700000000C7
:101E1000040000202DE9F84384B00700884616002E
:101E20009946300080B2800000F06AFB0500002D6A
:101E30000BD04C2000F064FB0400002C01D0256383
:101E400004E0280000F088FB00E00024002C12D001
:101E50000020039002940D9801900C9800904B463E
:101E6000B6B232004146380000F00AF8200000F017
:101E700052F8012001E05FF0FF3005B0BDE8F083CB
:101E80002DE9F84305001E000A9F386B00EB820025
:101E9000B0F104085FEAD8085FEAC808002910D04A
:101EA000002200E0521C102A07D2885C07EB0203D4
:101EB00083F83400885C0028F4D1002087F84300C0
:101EC00002E0002087F83400DDF82090B9F1050F1A
:101ED00001D35FF00409099CC7F82C90381D00F06D
:101EE00052FB17F1180000F04EFB3F61D9F10509D4
:101EF000C7F818907F6200207864002087F84800B7
:101F000032002900404600F07BFB3860002C00D0F6
:101F10002760BDE8F18338B5040000F09CFBDFF8D2
:101F200000150868401C0860DFF8F854286800288D
:101F300006D12C60086801280DD100F010FA0AE0E3
:101F4000DFF8E4040068002805D1E06A2968C96A5E
:101F5000884200D32C60DFF8D4040168491C01607A
:101F6000DFF8CC140A680123E06A83401A430A6050
:101F7000211DDFF8C024E36A1420434302EB030071
:101F800000F004FB00F073FBDFF89C0400680028FD
:101F90000DD02868C06AE16A884208D25FF080509C
:101FA000DFF8A0140860BFF34F8FBFF36F8F31BD10
:101FB00010B504000020002C07D000F039F80021F3
:101FC000200000F045FA00F039F8002808D15FF051
:101FD0008050DFF874140860BFF34F8FBFF36F8F2A
:101FE00010BDE0B5DFF8E40401900020009000236C
:101FF0008022DFF8DC140FF24530FFF70BFF0128D9
:1020000015D1BF2080F31188BFF34F8FBFF36F8FBF
:102010005FF0FF30DFF8BC1408600120DFF808141F
:1020200008600020DFF8B014086000F001FB07BD75
:10203000DFF894040168491C0160704770B5002402
:10204000002500F008FBDFF880040168491E0160EC
:102050000068002855D1DFF8C8030068002826D1A1
:102060004FE0C868C46814F1180000F0B6FA201DEB
:1020700000F0B3FADFF8B8130A680123E06A83407E
:102080001A430A60211DDFF8AC23E36A142043439E
:1020900002EB030000F07AFAE06ADFF888130968BF
:1020A000C96A884203D30120DFF830140860DFF8E2
:1020B000141408680028D4D1002C01D000F09CF939
:1020C000DFF81C643468002C0CD000F01EF80028E7
:1020D00003D00120DFF804140860641E002CF4D142
:1020E00000203060DFF8F4030068002809D00125E3
:1020F0005FF08050DFF850130860BFF34F8FBFF3DD
:102100006F8F00F0B4FA280070BDF8B50025DFF835
:10211000B8030068002863D1DFF824030468641C56
:102120000460002C0ED1DFF8BC030168DFF8B8238F
:10213000136803601160DFF8B4030168491C016093
:1021400000F05AF9DFF88C633068844231D323E021
:10215000381D00F042FAB86A002803D017F11800C1
:1021600000F03BFADFF8C8120A680123F86A8340DE
:102170001A430A60391DDFF8BC22FB6A142043436E
:1021800002EB030000F002FAF86ADFF8981209681F
:10219000C96A884200D30125DFF84813086800683F
:1021A000002819D00868C068C76878688442CFD210
:1021B0003060DFF870020068DFF87812C26A14201D
:1021C00042438858022800D30125DFF81003006835
:1021D00000280AD0012508E05FF0FF303060E8E712
:1021E000DFF8FC020168491C01602800F2BDDFF83D
:1021F000D8020068002804D00120DFF8E01208604F
:102200001FE00020DFF8D412086089480068B0FAA7
:1022100080F1D1F11F01DFF81C221420414302EBB1
:102220000100416849684160416810F1080291422B
:1022300002D14168496841604068C068DFF8801297
:102240000860704710B50C00DFF874120968183187
:1022500000F0A8F90121200000F0FAF810BD10B537
:10226000C068C46814F1180000F0B7F9DFF858022C
:102270000068002813D1201D00F0AFF96C490A68EE
:102280000123E06A83401A430A60211D694AE36A18
:102290001420434302EB030000F078F905E014F149
:1022A0001801DFF8200200F071F95E480068C06A8A
:1022B000E16A884205D201200121DFF82022116065
:1022C00000E0002010BDDFF8241209680160DFF88B
:1022D000081209684160704738B504000D0000F02D
:1022E000BAF9574800686168411A2A6812F1010F6B
:1022F00001D1002418E0DFF8F421126823689A4223
:1023000004D06268904201D301240DE02868814224
:1023100007D22868411A29602000FFF7D4FF002463
:1023200002E000202860012400F0A1F9200032BD65
:102330000120DFF8A81108607047000080B500F0A8
:1023400037F83C4800680228F9D35FF08050DFF886
:10235000F8100860BFF34F8FBFF36F8FEFE738B50A
:10236000002407E03348142101FB04F1084400F085
:10237000FBF8641C052CF5D3DFF87441200000F055
:10238000F3F8DFF87051280000F0EEF8DFF83401C0
:1023900000F0EAF8284800F0E7F8DFF8B00000F0B5
:1023A000E3F8DFF840010460DFF83C01056031BD6F
:1023B00038B513E000F04FF91F48C068C468201D0D
:1023C00000F00BF916480168491E01602868401E9C
:1023D000286000F04CF9200000F005F8174D28683F
:1023E0000028E7D131BD10B50400206B00F0B4F82F
:1023F000200000F0B1F810BDDFF8E81008680068B0
:10240000002805D15FF0FF30DFF8C810086006E053
:102410000868C068C0684068DFF8B8100860704796
:1024200010450020004500201C4500202C450020C0
:10243000184500200C440020AC4400200C4500202E
:102440001445002004ED00E004ED00E0C04400204D
:10245000F8B505000C0020480668194F3868001DC3
:1024600000F0BBF8002807D1386823490A68012327
:10247000C06A83409A430A6015F1010F07D1002C0E
:1024800005D03868011D1D4800F080F816E0AD1930
:1024900038684560B54206D23868011D12480068A8
:1024A00000F080F80AE03868011D0E48006800F06E
:1024B00079F8084801688D4200D20560F1BD00003E
:1024C0000045002098440020384500203445002075
:1024D000DC3F000830450020144500202445002042
:1024E0002045002004450020084500202845002004
:1024F000704400208444002018450020C04400207F
:1025000038B50500002415F0070F04D015F10800B8
:1025100015F00705451BFFF78BFD104908680028DB
:1025200003D10F48C008C00008600E480268AA180E
:1025300044F2F8339A420BD202680368EB189A42CD
:1025400006D20968026801EB020401686D18056093
:10255000FFF774FD200032BD70470000F0440020FA
:1025600014000020EC44002010F1080141605FF0ED
:10257000FF31816010F10801C16010F108010161B3
:1025800000210160704700210161704742684A6084
:1025900093688B6093685960916008610168491C79
:1025A0000160704710B40B6813F1010F01D102698B
:1025B00007E010F1080200E0526854682468A34262
:1025C000FAD253684B604B6899608A605160086129
:1025D0000168491C016010BC70470169826843684A
:1025E0009A60426883685A604A68824201D1826870
:1025F0004A60002202610868401E0860086870474F
:10260000001F5FF080730360001F490849000160EC
:10261000001F0FF20D01016014380260203870476E
:10262000BF2080F31188BFF34F8FBFF36F8FFEE79A
:1026300080B51F48016851F47F010160016851F0C5
:102640007F41016000F03AF800201A49086000F06C
:102650007CF8002002BDBF2080F31188BFF34F8FAC
:10266000BFF36F8F13480168491C01607047114820
:102670000168491E01600068002802D1002080F333
:102680001188704780B5BF2080F31188BFF34F8F4A
:10269000BFF36F8FFFF739FD002803D05FF0805044
:1026A00005490860002080F3118801BD000000008A
:1026B00020ED00E00000002004ED00E005480021CE
:1026C00001600021044A11600449054A1160072194
:1026D0000160704710E000E018E000E03F190100E1
:1026E00014E000E0EFF30980BFF36F8F1D4B1A6811
:1026F00020E9F00F106008B54FF0BF0080F311889B
:10270000BFF34F8FBFF36F8FFFF771FD4FF00000E6
:1027100080F31188BDE8084019680868B0E8F00F38
:1027200080F30988BFF36F8F70470E4B19680868F4
:10273000B0E8F00F80F30988BFF36F8F4FF000000F
:1027400080F311884EF00D0E70470748006800684E
:1027500080F3088862B661B6BFF34F8FBFF36F8F07
:1027600000DF00000045002008ED00E0F8B504009F
:102770000D00160000270CE03800C0B2225CDFF824
:10278000BC15280000F044FB2900300000F060FB7D
:102790007F1C380094F82A10C0B28842ECD352A1B2
:1027A000300000F055FBF1BDE0B500F0A4FB00F0F7
:1027B0005FFB002841D100F0D1FB00222B21052036
:1027C00000F02DFCDFF87815086000222B21052091
:1027D00000F025FCDFF86C15086000222B21052095
:1027E00000F01DFCDFF8601508600020019001205A
:1027F000009000238022DFF854150FF26100FFF7EC
:1028000009FB002001900120009000238022DFF8C6
:1028100040150FF22D00FFF7FDFA00200190022075
:10282000009000234FF48072DFF828150FF2BD00EE
:10283000FFF7F0FAFFF7D5FBFEE700200EBD000022
:1028400080B500F09AFB4FF47A70FFF7B1FB00F00F
:1028500099FB4FF47A70FFF7ABFBF2E730B58BB022
:102860002B2100226C46200000F0A6FDDFF8E84492
:10287000DFF8E854200000F0D3FDDFF8E424DFF8AF
:10288000E434FFF7E1F900F0EFFD0400280000F068
:10289000C7FD0022DFF8D034FFF7D6F900F0E4FDE1
:1028A000050022000121684600F01EFE2A000121D9
:1028B000684600F053FE002364226946DFF8800476
:1028C000006800F0D2FB002364226946DFF8780438
:1028D000006800F0CAFB684600F0FAFD4CF2503088
:1028E000FFF766FBC6E70000220D0A0010B5A4B092
:1028F000002416A8DFF874143822FEF785FC0220A5
:1029000000F09DFE022000F0A2FEDFF8640400F05B
:1029100021FF00280CD04FF4FA70FFF749FBDFF8D5
:10292000540400F037FF002801D0641C00E000BF11
:10293000022000F084FE022000F089FEDFF8380457
:1029400000F008FF00280CD04FF4FA70FFF730FBBE
:10295000DFF8280400F01EFF002801D0641C00E00E
:1029600000BF022000F06BFE022000F070FEDFF8D6
:10297000100400F0EFFE00280DD04FF4FA70FFF7BE
:1029800017FBDFF8000400F005FF002802D0641CEC
:1029900000BF00E000BF022000F051FE022000F066
:1029A00056FEDFF8E40300F0D5FE00280DD04FF40A
:1029B000FA70FFF7FDFADFF8D40300F0EBFE002811
:1029C00002D0641C00BF00E000BF022000F037FE10
:1029D000022000F03CFEDFF8B80300F0BBFE002848
:1029E0000DD04FF4FA70FFF7E3FADFF8A80300F018
:1029F000D1FE002802D0641C00BF00E000BF02200E
:102A000000F01DFE022000F022FEDFF88C0300F033
:102A1000A1FE00280ED04FF4FA70FFF7C9FADFF8D4
:102A20007C0300F0B7FE002802D0641C00BF01E068
:102A3000641C00BF022000F002FE022000F007FE2E
:102A4000DFF85C0300F086FE00280DD04FF4FA702A
:102A5000FFF7AEFADFF84C0300F09CFE002802D02E
:102A6000641C00BF00E000BF022000F0E8FD02206F
:102A700000F0EDFDDFF8300300F06CFE00280CD014
:102A80004FF4FA70FFF794FAC84800F083FE00286C
:102A900002D0641C00BF00E000BF022000F0CFFDA8
:102AA000022000F0D4FDC24800F054FE00280CD0F3
:102AB0004FF4FA70FFF77CFABE4800F06BFE002876
:102AC00002D0641C00BF00E000BF022000F0B7FD90
:102AD000022000F0BCFDB84800F03CFE00280CD0FD
:102AE0004FF4FA70FFF764FAB44800F053FE002880
:102AF00002D0641C00BF00E000BF022000F09FFD78
:102B0000022000F0A4FDAE4800F024FE00280CD006
:102B10004FF4FA70FFF74CFAAA4800F03BFE002889
:102B200002D0641C00BF00E000BF022000F087FD5F
:102B3000022000F08CFDA44800F00CFE00280CD010
:102B40004FF4FA70FFF734FAA04800F023FE002893
:102B500002D0641C00BF00E000BF022000F06FFD47
:102B6000022000F074FD9A4800F0F4FD00280CD01B
:102B70004FF4FA70FFF71CFA964800F00BFE00289D
:102B800002D0641C00BF00E000BF022000F057FD2F
:102B9000022000F05CFD904800F0DCFD00280CD025
:102BA0004FF4FA70FFF704FA8C4800F0F3FD0028A8
:102BB00002D0641C00BF00E000BF022000F03FFD17
:102BC000022000F044FD864800F0C4FD00280CD02F
:102BD0004FF4FA70FFF7ECF9824800F0DBFD0028B3
:102BE00002D0641C00BF00E000BF022000F027FDFF
:102BF000022000F02CFD7C4800F0ACFD00280CD039
:102C00004FF4FA70FFF7D4F9784800F0C3FD0028BC
:102C100002D0641C00BF00E000BF022000F00FFDE6
:102C2000022000F014FD724800F094FD00280CD042
:102C30004FF4FA70FFF7BCF96E4800F0ABFD0028C6
:102C400002D0641C00BF00E000BF022000F0F7FCCF
:102C5000022000F0FCFC684800F07CFD00280CD04D
:102C60004FF4FA70FFF7A4F9644800F093FD0028D0
:102C700002D0641C00BF00E000BF022000F0DFFCB7
:102C8000022000F0E4FC5E4800F064FD00280BD058
:102C90004FF4FA70FFF78CF95A4800F07BFD0028DA
:102CA00001D0641C00E000BF022000F0C8FC02203C
:102CB00000F0CDFC544800F04DFD00280CD04FF43E
:102CC000FA70FFF775F9514800F064FD002802D052
:102CD000641C00BF00E000BF2B2100226C462000D6
:102CE00000F06AFB0020642269461548006800F085
:102CF00043FA01280DD116AA0BA96846FFF736FD45
:102D0000684600F0E5FB022000F0A1FC16A800F0E8
:102D100021FD684600F05BFD80B2002809D0002349
:102D2000642269460848006800F09FF9684600F090
:102D3000CFFB42F21070FFF73BF9D4E7CC3F00081D
:102D4000F4440020F8440020FC4400205C3B0008D0
:102D5000F03E0008DC3E0008CDCC4C3E0000A44113
:102D60009A9999999999B93F00000440903A0008BE
:102D7000D43F0008603F0008B03C0008CC3C00088D
:102D8000D43B0008843B0008003F0008103F0008C7
:102D9000E83C0008043D0008203D00083C3D0008D8
:102DA000583D0008743D0008903D0008AC3D000807
:102DB000C83D0008E43D0008003E00081C3E000835
:102DC000383E0008543E0008703E00088C3E000863
:102DD000C43E0008A83E00086C3F00085C3C0008A8
:102DE000203F0008303F0008903F00089C3F00084B
:102DF000203A0008C83A0008583A0008FC3A00088F
:102E0000783F0008843F0008403F0008A83F0008C2
:102E10000CB430B583B00A4606A9029104460025D9
:102E20000194009502AB01A9084878441E30FDF7D3
:102E30005DF9019A157000284EBF04460198041BE5
:102E4000204603B030BC5DF80CFB00BF3BE3FFFF46
:102E5000034600E05B1C1A78002AFBD111F801CB75
:102E600083F800C013F8012B002AF7D17047000047
:102E700081B03648016851F48031016001688903EE
:102E8000FCD533490A6852F4E8120A60026852F02D
:102E9000807202600022009207E0009A42F2010371
:102EA0009A421EDA009A521C009202689201F4D5EE
:102EB000284A136853F0020313600A6852F48062D0
:102EC0000A600A6852F002020A600A6812F00C02F4
:102ED000082AFAD10168490849000160002001B0C0
:102EE0007047016831F480310160016831F0807110
:102EF00001600220F3E71548016851F0010101600B
:102F00000168016831F0F80151F080010160104959
:102F100000220A600A6812F00C0FFBD1016831F040
:102F20008071016001688901FCD4016831F41021CD
:102F3000016001688903FCD4016831F480210160DB
:102F40000548016851F0807101607047001002402F
:102F50000410024000200240241002400C48016886
:102F600051F0100101600B48016831F470010160FB
:102F7000016851F40011016070474FF40050064998
:102F8000086070474FF40050044908607047000023
:102F900018100240041001401010014014100140AC
:102FA00038B505000C00FFF756FB2968EA6B286C62
:102FB000424301EB0200A8600020A8632868686013
:102FC0002968EA6B521E286C424301EB0200E8605C
:102FD0005FF0FF3085F8440085F84500002C12D1E1
:102FE0002869002817D015F11000FFF738F90028DC
:102FF00011D05FF08050DFF878120860BFF34F8F78
:10300000BFF36F8F07E015F11000FFF7ADFA15F170
:103010002400FFF7A9FAFFF72AFB012032BDF8B51B
:1030200005000E00170006FB05F04830FFF768FAB0
:103030000400002C09D0200010F1480200943B004D
:10304000DBB23100280000F002F82000F2BD80B5AC
:10305000029B002901D11B6000E01A60D86319644B
:1030600001211800FFF79CFF01BDF7B505000E0018
:103070001F00002430E0029800285CD0002C03D10F
:103080006846FFF720F90124FFF7F1FAFEF7D0FFB9
:10309000FFF7E1FA95F9440010F1010F02D1002089
:1030A00085F8440095F9450010F1010F02D1002088
:1030B00085F84500FFF7DBFA02A96846FFF70CF92F
:1030C000002852D1280000F068F9002837D12800E4
:1030D00000F01EF9FEF7B2FFFFF7BDFAA86BE96B2F
:1030E000884201D3022FC6D13A003100280000F0F7
:1030F000C1F8696A00290FD015F12400FFF7AFF875
:10310000002814D05FF08050DFF864110860BFF32E
:103110004F8FBFF36F8F0AE0002808D05FF0805018
:10312000DFF84C110860BFF34F8FBFF36F8FFFF7CD
:103130009EFA01201FE0FFF79AFA00201BE0029997
:1031400015F11000FFF77EF8280000F0E1F8FEF717
:1031500075FF0028C0D15FF08050DFF814110860BF
:10316000BFF34F8FBFF36F8FB6E7280000F0D0F8A2
:10317000FEF764FF0020FEBDF7B506000F00002437
:1031800004E0300000F0C4F8FEF758FFFFF763FAE0
:10319000B56B002D06D1029800281ED1FFF767FA03
:1031A000002063E03900300000F09DF86D1EB5632B
:1031B000306900280DD016F11000FFF750F80028F4
:1031C00007D05FF080502A490860BFF34F8FBFF3EC
:1031D0006F8FFFF74CFA012048E0002C03D16846BE
:1031E000FFF771F80124FFF742FAFEF721FFFFF71E
:1031F00032FA96F9440010F1010F02D1002086F84E
:10320000440096F9450010F1010F02D1002086F824
:103210004500FFF72CFA02A96846FFF75DF8002881
:1032200019D1300000F0ABF80028AAD0029916F1AD
:103230002400FFF707F8300000F06AF8FEF7FEFE02
:103240000028A3D15FF0805009490860BFF34F8F79
:10325000BFF36F8F9AE7300000F05AF8FEF7EEFEEA
:10326000300000F08CF8002890D00020FEBD000057
:1032700004ED00E02DE9F041060015000027B46BD5
:10328000306C00282AD0002D0FD1326C75682800D0
:10329000FDF7AAFF7068316C084470607068B1680F
:1032A00088421BD33068706018E0326CD6F80C800E
:1032B0004046FDF799FFF068316C49420844F060E0
:1032C000F0683168884204D2B068316C49420844E1
:1032D000F060022D02D1002C00D0641E641CB46387
:1032E0003800BDE8F08110B50C00016C00290ED04B
:1032F000C168026C1144C160C1688268914201D307
:103300000168C160026CC1682000FDF76DFF10BD4F
:1033100070B50400FFF79FF994F9455008E014F1E7
:103320002400FEF79CFF002801D0FFF701F86D1E76
:10333000280040B2012802DB606A0028EFD15FF06C
:10334000FF3584F84550FFF792F9FFF784F994F9B7
:10335000446008E014F11000FEF781FF002801D05E
:10336000FEF7E6FF761E300040B2012802DB20693E
:103370000028EFD184F84450FFF779F970BD10B5FB
:103380000400FFF768F9A06B002801D1012400E0D8
:103390000024FFF76CF9200010BD10B50400FFF702
:1033A0005AF9A06BE16B884201D1012400E00024AE
:1033B000FFF75DF9200010BD62F30F2262F31F4298
:1033C000401810F0030308D0C91A1FD3DB0748BF09
:1033D00000F8012D28BF20F8022D130030B4144648
:1033E0001546103928BF20E93C00FAD8490728BF04
:1033F00020E90C0048BF40F8042D890028BF20F8C0
:10340000022D48BF00F8012D30BC7047C91818BF05
:1034100000F8012DCB0728BF00F8012D70470000F0
:10342000C0F3C75181B1FF2906D0C110400721F078
:10343000E04101F16051704741020CBF40F4E001EE
:103440006FF000410020704700F0004100020AD0F8
:10345000B0FA80FC00FA0CF001F16051A1EB0C51C4
:1034600001EBD0214005704701F000428B1AA3F117
:103470006051B1F5801F0ADBB1F17F6F1FD242EAC4
:10348000C102C10071F1004142EB507070470B1551
:10349000C3F10903212B10D2890241EA9051800225
:1034A0000128494141F0004121FA03F0C3F1200312
:1034B000994071F1004150417047100070476FF022
:1034C000000013EB103F5CBF000E42EAC050704793
:1034D00038B504002A21002225002800FFF76CFFE0
:1034E000002084F82A0031BD70B504000D001600DC
:1034F00094F82A00001D2A2808D35F22DFF8B810AC
:10350000DFF8BC0000F084F9AFF30080DFF8B410FE
:10351000300000F08FF900F0F9F994F82A104A1CF5
:1035200084F82A20C9B2655494F82A104A1C84F8F9
:103530002A206722C9B2625494F82A104A1C84F8DF
:103540002A20020012B21212C9B2625494F82A1050
:103550004A1C84F82A20C9B2605470BD70B50400BA
:103560000D00160094F82A00C01C2A2806D36B22EE
:103570001149124800F04CF9AFF300805FF0804130
:10358000300000F057F900F0C1F994F82A104A1CF5
:1035900084F82A20C9B2655494F82A104A1C84F889
:1035A0002A206822C9B2625494F82A104A1C84F86E
:1035B0002A20C9B2605470BD303B00081C3C000892
:1035C0003C3C000800002041012210F01F018A400D
:1035D000584940B2400941F820207047012210F0BC
:1035E0001F018A40544940B2400941F820207047E9
:1035F00080B5C0B2022808D1C9B20091504B502208
:103600004E49262000F047F801E05FF0FF3002BD90
:1036100080B5C0B2022804D14A49262000F029F81A
:1036200001E05FF0FF3002BD80B5C0B2022803D1D7
:10363000444800F0C4F901E04FF6FF7002BD80B5C8
:10364000C0B2022802D13F4800F0BBF901BD80B5ED
:10365000C0B2022802D13A4800F0B3F901BDC168F6
:1036600051F08001C1607047C16831F08001C160D4
:10367000704738B504000D00200040B2FFF7AEFFE0
:10368000280000F07FF90500200040B2FFF79CFF02
:10369000280000B232BDF8B505000E0014001F006E
:1036A000280040B2FFF79AFFA4B2380000F087F973
:1036B000241A012C0ADB069C2100C9B2380000F054
:1036C00053F9E4B23000FFF7CAFF01E05FF0FF34C6
:1036D000280040B2FFF778FF200000B2F2BD38B5F5
:1036E0001948006880060CD514480068800608D583
:1036F00016481749096801800188C9B2114800F0CD
:1037000033F90E4C2068000611D50D4D280000F04D
:1037100056F9002808D00D4C280000F033F920801D
:1037200020780B49086002E02000FFF79DFF31BDC3
:103730000000000000E100E080E100E00044004003
:10374000D4440020E04400200C44004040450020C8
:103750000444004070B504002000FDF7F9FC0500AA
:10376000002600E0761C2800C0B2401E3100C9B21D
:1037700088420DDB3000C0B2215C0220FFF738FF29
:103780003100C9B2615CC0B28842EBD0002000E0D9
:10379000012070BD70B504000220FFF745FF050051
:1037A000002600E0761C280080B2401E3100C9B21D
:1037B00088420ADB0220FFF72BFF3100C9B2615CAF
:1037C000C0B28842EED0002000E0012070BDF8B504
:1037D00004000220FFF728FF0500280080B200281F
:1037E00013D000260AE094F82A70781C84F82A0086
:1037F0000220FFF70DFFFFB2E055761C280080B2D3
:10380000401E3100C9B28842EDDA280080B2F2BD14
:1038100000B583B00091019202906A4604491820D5
:10382000ABBE002801D1FEF70BFA03B000BD00BF0C
:1038300010100200FF2212EAD05C1DBF12EAD15321
:10384000944593422BE09C44D30780EA01021A403E
:1038500043EA002043EA0121A1FB0030C04238BF07
:1038600040007CF17F010BDBFE294ADA5B0842EA6B
:10387000C15153EA006373F1004C51EB10207047C3
:10388000D1F1080CDCF120012FDB5B0810FA01F10B
:103890000B4320FA0CF073F10041504170479445FE
:1038A0001CBF02EAD153934280EA010202F00042B7
:1038B0001DD0400019D0490017D05BB9634514D022
:1038C0000902B1FA81F39940BCEB030CC00140F04E
:1038D0000040C1E70002B0FA80FC10FA0CF0B3EB34
:1038E0000C0CC90141F00041B6E7100070474000E0
:1038F0000AD0490008D010F1807F94BF11F1807F79
:1039000002E042F0FF407047D0437047C0F3C75118
:103910007E390EDDC217D1F1200106DD000240F034
:103920000040C840104450407047D04380F00040F1
:103930007047002070470288521C0280028889B2BA
:103940008A4201D3002101807047028889B28A42ED
:1039500002D20188491C018070470188002902D0E9
:103960000188491E0180704710B50400A068628874
:1039700081542188A01CFFF7DEFF2188201DFFF75E
:10398000E4FF10BD10B58188002902D15FF0FF303F
:1039900014E0B0F90210B0F904208A1A110009B23B
:1039A000002902D5B0F900108A18816812B28C5C27
:1039B000001DFFF7D2FFE4B2200000B210BD8088E6
:1039C00070470021818070470F49086850F001005E
:1039D00008600E4A13680E48034013600B680D48D8
:1039E00003400B60086830F480200860106830F4F1
:1039F000FE0010605FF41F00074908605FF0006080
:103A000006490860704700000010024004100240A0
:103A10000000FFF8FFFFF6FE0810024008ED00E08E
:103A200041542B4B45593D4E776B534B65792C20B8
:103A30002231613533393963633661663830336436
:103A400032623836323032393839363037613232D4
:103A500036220D0A0000000041542B4B45593D41D0
:103A60005050534B45592C2022613837353461660C
:103A7000313532633130303066393439643863304F
:103A8000643537383133643537220D0A00000000C1
:103A900041542B434D53474845583D2200000000F8
:103AA0000000000000000000000000000000000016
:103AB0000000000000000000000000000000000006
:103AC00000000000000000002B4B45593A204E57E3
:103AD0004B534B45592031413533393943433641F6
:103AE000463830334432423836323032393839365B
:103AF0003037413232360D0A000000002B4B455959
:103B00003A20415050534B455920413837353441C4
:103B10004631353243313030304639343944384318
:103B2000304435373831334435370D0A0000000052
:103B3000443A5C776F726B73706163655C46616E6B
:103B40005F636F6E74726F6C6C65725C63617965D4
:103B50006E6E655F6C70702E6300000074656D7032
:103B60006572617475726520616E642068756D6937
:103B700064697479206D6561737572656D656E74C5
:103B8000000000002B49443A204465764575692CB5
:103B90002037393A37423A38373A45423A38323A9A
:103BA00034353A33323A35340D0A000010B507493E
:103BB00079441831064C7C44163404E00A68081D28
:103BC000114488470146A142F8D110BD2C000000E5
:103BD0004C00000041542B49443D446576457569CD
:103BE0002C20223739376238376562383234353322
:103BF000323534220D0A00009BD4FFFF3845000007
:103C00000C00002000000000DBD4FFFF0C000000CF
:103C1000B00300000000002000000000286C70705D
:103C20002D3E637572736F72202B2028335529291E
:103C3000203C20283432552900000000286C707088
:103C40002D3E637572736F72202B202834552929FD
:103C5000203C202834325529000000002B44523AE1
:103C600020455534333320445230205346313220DE
:103C700042573132354B0D0A0000000000F00DF8BC
:103C8000002801D0FFF792FFAFF300800020AFF3D0
:103C90000080FEF789FD00F002F80120704700F077
:103CA00001B8000007463846FEF78EF8FBE7000033
:103CB00041542B49443D446576416464722C202272
:103CC0003031383535643961220D0A002B49443AC8
:103CD00020446576416464722C2030313A38353A9C
:103CE00035443A39410D0A0041542B43483D302CAC
:103CF0003433332E3137352C4452302C4452350D69
:103D00000A0000002B43483A20302C34333331373B
:103D1000353030302C4452303A4452350D0A0000D0
:103D200041542B43483D312C3433332E3337352C1B
:103D30004452302C4452350D0A0000002B43483ABF
:103D400020312C3433333337353030302C4452303B
:103D50003A4452350D0A000041542B43483D322C61
:103D60003433332E3537352C4452302C4452350DF4
:103D70000A0000002B43483A20322C3433333537C5
:103D8000353030302C4452303A4452350D0A000060
:103D900041542B43483D332C3433332E3737352CA5
:103DA0004452302C4452350D0A0000002B43483A4F
:103DB00020332C3433333737353030302C445230C5
:103DC0003A4452350D0A000041542B43483D342CEF
:103DD0003433332E3937352C4452302C4452350D80
:103DE0000A0000002B43483A20342C34333339374F
:103DF000353030302C4452303A4452350D0A0000F0
:103E000041542B43483D352C3433342E3137352C37
:103E10004452302C4452350D0A0000002B43483ADE
:103E200020352C3433343137353030302C44523057
:103E30003A4452350D0A000041542B43483D362C7C
:103E40003433342E3337352C4452302C4452350D14
:103E50000A0000002B43483A20362C3433343337E1
:103E6000353030302C4452303A4452350D0A00007F
:103E700041542B43483D372C3433342E3537352CC1
:103E80004452302C4452350D0A0000002B43483A6E
:103E900020372C3433343537353030302C445230E1
:103EA0003A4452350D0A00002B525857494E323AC7
:103EB000203433343636353030302C4452300D0A0D
:103EC0000000000041542B525857494E323D3433C4
:103ED000342E3636352C4452300D0A0052484637BF
:103EE000382D303532206F7065726174696F6E00E5
:103EF00066616E206F7065726174696F6E0000009C
:103F000041542B44523D45553433330D0A000000D3
:103F10002B44523A2045553433330D0A000000003B
:103F200041542B504F5745523D31320D0A0000008D
:103F30002B504F5745523A2031320D0A00000000F5
:103F400041542B434C4153533D430D0A00000000A4
:103F50000148804701480047C9390008B53F0008BB
:103F60002B41543A204F4B0D0A00000041542B4482
:103F7000523D4452300D0A0041542B504F52543D93
:103F8000320D0A002B504F52543A20320D0A0000D5
:103F900041542B4144523D4F4E0D0A002B41445297
:103FA0003A204F4E0D0A00002B434C4153533A2008
:103FB000430D0A00AFF30080AFF30080FFF75EFE11
:103FC000AAAAAAAAFFFFFFFFFFFFFFFF2530325872
:103FD0000000000041540D0A0000000049444C4517
:103FE00000000000686A6C747A4C0000FFF7FEBFA6
:103FF000FFF7FEBFFFF7FEBFFFF7FEBFFFF7FEBFF5
:10400000FFF7FEBFFFF7FEBFFFF7FEBFFFF7FEBFE4
:10401000FFF7FEBFFFF7FEBFFFF7FEBFFFF7FEBFD4
:10402000FFF7FEBFFFF7FEBFFFF7FEBFFFF7FEBFC4
:10403000FFF7FEBFFFF7FEBFFFF7FEBFFFF7FEBFB4
:10404000FFF7FEBFFFF7FEBFFFF7FEBFFFF7FEBFA4
:10405000FFF7FEBFFFF7FEBFFFF7FEBFFFF7FEBF94
:10406000FFF7FEBFFFF7FEBFFFF7FEBFFFF7FEBF84
:10407000FFF7FEBFFFF7FEBFFFF7FEBFFFF7FEBF74
:10408000FFF7FEBFFFF7FEBFFFF7FEBFFFF7FEBF64
:10409000FFF7FEBFFFF7FEBFFFF7FEBFFFF7FEBF54
:0C40A000FFF7FEBFFFF7FEBFFFF7FEBFFB
:0400000508003FB5FB
:00000001FF
