:020000040800F2
:10000000D04E0020051200084112000845120008D9
:10001000491200084D1200085112000800000000AB
:100020000000000000000000000000000B090008B4
:100030005512000800000000C50800086508000807
:10004000591200085D1200086112000865120008CC
:10005000691200086D12000871120008751200087C
:10006000791200087D12000881120008851200082C
:10007000891200088D1200089112000895120008DC
:10008000991200089D120008A1120008A51200088C
:10009000A9120008AD120008B1120008B51200083C
:1000A000B9120008BD120008C1120008C5120008EC
:1000B000C91200083F0D0008CD120008D112000837
:1000C000D5120008D9120008DD120008E11200085C
:1000D000E5120008E9120008E50A0008ED12000820
:1000E000F1120008F5120008F91200082DE9F84392
:1000F00084B00700884616009946300080B2800020
:1001000000F0EEFA0500002D0BD04C2000F0E8FACC
:100110000400002C01D0256304E0280000F00CFB53
:1001200000E00024002C12D00020039002940D98CF
:1001300001900C9800904B46B6B232004146380010
:1001400000F00AF8200000F052F8012001E05FF012
:10015000FF3005B0BDE8F0832DE9F84305001E002F
:100160000A9F386B00EB8200B0F104085FEAD80800
:100170005FEAC808002910D0002200E0521C102AB3
:1001800007D2885C07EB020383F83400885C002800
:10019000F4D1002087F8430002E0002087F8340003
:1001A000DDF82090B9F1050F01D35FF00409099C37
:1001B000C7F82C90381D00F0D6FA17F1180000F09F
:1001C000D2FA3F61D9F10509C7F818907F62002083
:1001D0007864002087F8480032002900404600F08B
:1001E000FFFA3860002C00D02760BDE8F18338B5F5
:1001F000040000F020FBDFF808140868401C0860C9
:10020000DFF800542868002806D12C60086801280F
:100210000DD100F094F90AE0DFF8EC030068002843
:1002200005D1E06A2968C96A884200D32C60DFF8EA
:10023000DC030168491C0160DFF8D4130A6801235C
:10024000E06A83401A430A60211DDFF8C823E36A8D
:100250001420434302EB030000F088FA00F0F7FAA1
:10026000DFF8A403006800280DD02868C06AE16A9E
:10027000884208D25FF08050DFF8A8130860BFF30F
:100280004F8FBFF36F8F31BD10B504000020002CDD
:1002900007D000F039F80021200000F0C9F900F083
:1002A00039F8002808D15FF08050DFF87C1308602F
:1002B000BFF34F8FBFF36F8F10BDE0B5DFF8EC03D6
:1002C00001900020009000238022DFF8E4130FF259
:1002D0004D20FFF70BFF012815D1BF2080F31188B7
:1002E000BFF34F8FBFF36F8F5FF0FF30DFF8C413A2
:1002F00008600120DFF8101308600020DFF8B81351
:10030000086000F085FA07BDDFF89C030168491C0E
:100310000160704770B50024002500F08CFADFF80A
:1003200088030168491E01600068002855D1DFF884
:10033000D0020068002826D14FE0C868C46814F1D4
:10034000180000F03AFA201D00F037FADFF8C0126A
:100350000A680123E06A83401A430A60211DDFF81E
:10036000B422E36A1420434302EB030000F0FEF9D9
:10037000E06ADFF890120968C96A884203D3012055
:10038000DFF838130860DFF81C1308680028D4D1A0
:10039000002C01D000F020F9DFF824633468002C31
:1003A0000CD000F01EF8002803D00120DFF80C1359
:1003B0000860641E002CF4D100203060DFF8FC02DD
:1003C0000068002809D001255FF08050DFF858123E
:1003D0000860BFF34F8FBFF36F8F00F038FA28002B
:1003E00070BDF8B50025DFF8C0020068002863D1B1
:1003F000DFF82C020468641C0460002C0ED1DFF8C6
:10040000C4020168DFF8C022136803601160DFF8DE
:10041000BC020168491C016000F0DEF8DFF894625C
:100420003068844231D323E0381D00F0C6F9B86A41
:10043000002803D017F1180000F0BFF9DFF8D01141
:100440000A680123F86A83401A430A60391DDFF8FD
:10045000C421FB6A1420434302EB030000F086F939
:10046000F86ADFF8A0110968C96A884200D301253B
:10047000DFF8501208680068002819D00868C068C2
:10048000C76878688442CFD23060DFF878010068AE
:10049000DFF88011C26A142042438858022800D332
:1004A0000125DFF81802006800280AD0012508E0BD
:1004B0005FF0FF303060E8E7DFF804020168491CB4
:1004C00001602800F2BDDFF8E0010068002804D0D8
:1004D0000120DFF8E81108601FE00020DFF8DC11E0
:1004E00008604B480068B0FA80F1D1F11F01DFF8D5
:1004F00024211420414302EB010041684968416016
:10050000416810F10802914202D141684968416096
:100510004068C068DFF888110860704780B500F057
:1005200037F83C4800680228F9D35FF08050DFF8C4
:10053000F8100860BFF34F8FBFF36F8FEFE738B548
:10054000002407E03348142101FB04F1084400F0C3
:10055000FBF8641C052CF5D3DFF87441200000F093
:10056000F3F8DFF87051280000F0EEF8DFF83401FE
:1005700000F0EAF8284800F0E7F8DFF8B00000F0F3
:10058000E3F8DFF840010460DFF83C01056031BDAD
:1005900038B513E000F04FF91F48C068C468201D4B
:1005A00000F00BF916480168491E01602868401EDA
:1005B000286000F04CF9200000F005F8174D28687D
:1005C0000028E7D131BD10B50400206B00F0B4F86D
:1005D000200000F0B1F810BDDFF8E81008680068EE
:1005E000002805D15FF0FF30DFF8C810086006E092
:1005F0000868C068C0684068DFF8B81008607047D5
:10060000A046002090460020AC460020BC460020BA
:10061000A846002074450020484600209C46002043
:10062000A446002004ED00E004ED00E05C4600205C
:10063000F8B505000C0020480668194F3868001D01
:1006400000F0BBF8002807D1386823490A68012365
:10065000C06A83409A430A6015F1010F07D1002C4C
:1006600005D03868011D1D4800F080F816E0AD196E
:1006700038684560B54206D23868011D12480068E6
:1006800000F080F80AE03868011D0E48006800F0AC
:1006900079F8084801688D4200D20560F1BD00007C
:1006A0009046002034460020C8460020C446002062
:1006B00038120008C0460020A4460020B44600209E
:1006C000B04600209446002098460020B8460020FE
:1006D0000C46002020460020A84600205C46002052
:1006E00038B50500002415F0070F04D015F10800F7
:1006F00015F00705451BFFF707FE1049086800289D
:1007000003D10F48C008C00008600E480268AA184C
:1007100044F2F8339A420BD202680368EB189A420B
:1007200006D20968026801EB020401686D180560D1
:10073000FFF7F0FD200032BD704700008C4600201E
:10074000140000208846002010F1080141605FF08D
:10075000FF31816010F10801C16010F108010161F1
:1007600000210160704700210161704742684A60C2
:1007700093688B6093685960916008610168491CB7
:100780000160704710B40B6813F1010F01D10269C9
:1007900007E010F1080200E0526854682468A342A0
:1007A000FAD253684B604B6899608A605160086167
:1007B0000168491C016010BC704701698268436888
:1007C0009A60426883685A604A68824201D18268AE
:1007D0004A60002202610868401E0860086870478D
:1007E000001F5FF080730360001F4908490001602B
:1007F000001F0FF20D0101601438026020387047AD
:10080000BF2080F31188BFF34F8FBFF36F8FFEE7D8
:1008100080B51F48016851F47F010160016851F003
:100820007F41016000F03AF800201A49086000F0AA
:100830007CF8002002BDBF2080F31188BFF34F8FEA
:10084000BFF36F8F13480168491C0160704711485E
:100850000168491E01600068002802D1002080F371
:100860001188704780B5BF2080F31188BFF34F8F88
:10087000BFF36F8FFFF7B5FD002803D05FF0805006
:1008800005490860002080F3118801BD00000000C8
:1008900020ED00E00000002004ED00E0054800210C
:1008A00001600021044A11600449054A11600721D2
:1008B0000160704710E000E018E000E03F1901001F
:1008C00014E000E0EFF30980BFF36F8F1D4B1A684F
:1008D00020E9F00F106008B54FF0BF0080F31188D9
:1008E000BFF34F8FBFF36F8FFFF7EDFD4FF00000A9
:1008F00080F31188BDE8084019680868B0E8F00F77
:1009000080F30988BFF36F8F70470E4B1968086832
:10091000B0E8F00F80F30988BFF36F8F4FF000004D
:1009200080F311884EF00D0E70470748006800688C
:1009300080F3088862B661B6BFF34F8FBFF36F8F45
:1009400000DF00009046002008ED00E0012210F0DA
:100950001F018A40784940B2400941F82020704781
:1009600038B50C00C0B2022845D17448016851F472
:10097000003101607248016851F004010160714D5D
:100980000A220821280000F076F8032000900E23A8
:100990000C226D49280000F084F86C48016851F47D
:1009A0000031016000BF00BF00BF016831F40031B9
:1009B000016000BF00BF00BF654D2100280000F0AE
:1009C0001DF8002802D55FF0FF3016E032226149A1
:1009D000614800F0E6F8C8226049614800F0E1F89B
:1009E000280000F07AF82620FFF7B0FF280000F07A
:1009F0003DF8002001E05FF0FF3032BD10B400226E
:100A00000B684C68B3FBF4F39BB2836052F00C02AA
:100A10000B7A082B02D0092B11D013E08B7A002B14
:100A200003D0022B14D010D315E0C260497A0129FB
:100A300002D0022912D016E0002010BC704752F4F8
:100A40008052EBE75FF0FF30F7E752F48062ECE7AB
:100A500052F4C062E9E75FF0FF30EEE7016951F45C
:100A600000510161E8E75FF0FF30E6E7C16851F44B
:100A70000051C160704730B40323046813FA01F5D4
:100A800093402B4334EA030303600368012414FA00
:100A900001F1022414FA02F211431943016030BC3F
:100AA000704770B4039C0325066815FA02F29D4056
:100AB0002A4336EA020202600268022515FA03F3AD
:100AC00013430360012010FA04F40C6070BC7047FB
:100AD000C16831F08001C1607047C16851F02001E8
:100AE000C160704738B51F48006880060CD51848AB
:100AF0000068800608D51C481C49096801800188E7
:100B0000C9B2174800F054F8114C2068000611D5FE
:100B1000114D280000F077F8002808D0124C28006A
:100B200000F054F8208020781049086002E020008E
:100B3000FFF7CEFF31BD000000E100E01C100240D5
:100B40001810024000080140100801401010024037
:100B500000440040D8450020704600200C4400208E
:100B60007C4600200C440040CC4600200444004059
:100B70000288521C0280028889B28A4201D3002175
:100B800001807047028889B28A4202D20188491CDA
:100B9000018070470188002902D00188491E018028
:100BA0007047002343800023838002808160704768
:100BB00010B50400A068628881542188A01CFFF74A
:100BC000D7FF2188201DFFF7DDFF10BD10B58188FC
:100BD000002902D15FF0FF3014E0B0F90210B0F943
:100BE00004208A1A110009B2002902D5B0F90010B8
:100BF0008A18816812B28C5C001DFFF7CBFFE4B24B
:100C0000200000B210BD8088704730B4002513E08A
:100C100050F8042BD30744BFA9F101039A18091F08
:100C2000042942F8045BFAD213468C0744BF1580AE
:100C30009B1CC90748BF1D7050F8041B0029E7D151
:100C400030BC7047012210F01F018A404E4940B26B
:100C5000400941F82020704780B54C48016851F0A8
:100C6000020101601D20FFF7EDFF242048490860C4
:100C70004FF6E850474908604748016851F08061E5
:100C80000160016831F000610160016831F080713C
:100C90000160016831F00071016040480168490855
:100CA000490001603E490A6852F001020A600A6880
:100CB00032F002020A60026832F0020202600A6840
:100CC00032F480720A600A6852F400720A600168A5
:100CD00051F02001016033490A6852F010020A60A5
:100CE0000A6832F020020A600A6852F040020A6084
:100CF0000A68520852000A600A6832F002020A606A
:100D00000A6852F004020A60016851F001010160B2
:100D1000016851F0100101602348016851F00101A0
:100D20000160016851F002010160016851F00401A5
:100D300001601E48016851F48051016001BD1C48EA
:100D40000168C90706D5016849084900016000210A
:100D5000184A11700168890706D5016831F002014F
:100D600001600021144A1160016849070BD5016830
:100D700031F00401016011480068114908600D4814
:100D80000178491C0170704700E100E01C1002402E
:100D9000280400402C0400400008014020040040CA
:100DA00018040040080400400C040040042004E043
:100DB00010040040CE4600202404004038040040C7
:100DC000D444002081B03648016851F4803101607C
:100DD00001688903FCD533490A6852F4E8120A60B5
:100DE000026852F0807202600022009207E0009ACE
:100DF00042F201039A421EDA009A521C00920268E3
:100E00009201F4D5284A136853F0020313600A686C
:100E100052F480620A600A6852F002020A600A68AC
:100E200012F00C02082AFAD1016849084900016051
:100E3000002001B07047016831F480310160016821
:100E400031F0807101600220F3E71548016851F02C
:100E5000010101600168016831F0F80151F0800181
:100E60000160104900220A600A6812F00C0FFBD1E1
:100E7000016831F08071016001688901FCD401686A
:100E800031F41021016001688903FCD4016831F458
:100E9000802101600548016851F080710160704750
:100EA00000100240041002400020024024100240C2
:100EB000E0B5FFF7CAFFFFF785FF002821D100F05A
:100EC00063F8DFF8A8100220FFF74AFD0020019028
:100ED0000120009000238022DFF894100FF24500DB
:100EE000FFF704F9002001900120009000238022E8
:100EF000DFF880100FF21100FFF7F8F8FFF7DDF9C7
:100F0000FEE700200EBD000080B500F06CF84FF445
:100F10007A70FFF7B9F900F06BF84FF47A70FFF7C9
:100F2000B3F9F2E718B58BB02B2100226C462000F4
:100F300000F070F8DFF84000DFF8400000F008F83B
:100F400041F28830FFF7A0F900F002F8F8E700005E
:100F500080B540200A4908600F20FFF795F940202E
:100F600008490860FFF778FE01BD00001412000870
:100F700038110008F4110008CDCC4C3E0000A4410B
:100F800014080140100801401C48016851F0040198
:100F90000160016851F008010160016851F0100121
:100FA0000160016851F0010101601548016851F0CC
:100FB00080610160016831F000610160016831F019
:100FC00080710160016851F00071016040200D499D
:100FD00008600D48016831F470010160016851F446
:100FE0000011016070474FF40050084908607047D5
:100FF0004FF4005006490860704700001810024086
:101000000008014010080140041001401010014088
:101010001410014062F30F2262F31F42401810F0D7
:10102000030308D0C91A1FD3DB0748BF00F8012DFE
:1010300028BF20F8022D130030B41446154610398D
:1010400028BF20E93C00FAD8490728BF20E90C0056
:1010500048BF40F8042D890028BF20F8022D48BF62
:1010600000F8012D30BC7047C91818BF00F8012DD9
:10107000CB0728BF00F8012D704730B40EE002689E
:10108000436802440830DC0744BFA9F10104E318B7
:1010900052F8045B43F8045B091FF9D150F8041BB4
:1010A0000029ECD130BC70470F49086850F00100AE
:1010B00008600E4A13680E48034013600B680D4821
:1010C00003400B60086830F480200860106830F43A
:1010D000FE0010605FF41F00074908605FF00060C9
:1010E00006490860704700000010024004100240EA
:1010F0000000FFF8FFFFF6FE0810024008ED00E0D8
:1011000010B500F013F8020000230024E443106837
:10111000A04203D011000220ABBE13605068A04271
:1011200003D0111D0220ABBE536010BD01487047B3
:10113000000000000400002074656D706572617429
:1011400075726520616E642068756D696469747973
:10115000206D6561737572656D656E7400000000C9
:1011600010B5074979441831064C7C44163404E024
:101170000A68081D114488470146A142F8D110BDF4
:10118000080000002800000083FAFFFFC4460000AA
:101190000C00002000000000E3FEFFFF0C00000038
:1011A0008C000000000000200000000000F00DF89E
:1011B000002801D0FFF7D4FFAFF300800020AFF389
:1011C0000080FFF775FE00F002F80120704700F084
:1011D00001B800000746384600F002F8FBE70000BF
:1011E00080B5FFF78DFF024A11001820ABBEFBE768
:1011F0002600020066616E206F7065726174696F0F
:101200006E0000000148804701480047A91000080F
:10121000211200080051250280250000080100006D
:10122000AFF30080AFF30080FFF7C0FFAAAAAAAA1D
:10123000FFFFFFFFFFFFFFFF49444C450000000098
:10124000FFF7FEBFFFF7FEBFFFF7FEBFFFF7FEBFD2
:10125000FFF7FEBFFFF7FEBFFFF7FEBFFFF7FEBFC2
:10126000FFF7FEBFFFF7FEBFFFF7FEBFFFF7FEBFB2
:10127000FFF7FEBFFFF7FEBFFFF7FEBFFFF7FEBFA2
:10128000FFF7FEBFFFF7FEBFFFF7FEBFFFF7FEBF92
:10129000FFF7FEBFFFF7FEBFFFF7FEBFFFF7FEBF82
:1012A000FFF7FEBFFFF7FEBFFFF7FEBFFFF7FEBF72
:1012B000FFF7FEBFFFF7FEBFFFF7FEBFFFF7FEBF62
:1012C000FFF7FEBFFFF7FEBFFFF7FEBFFFF7FEBF52
:1012D000FFF7FEBFFFF7FEBFFFF7FEBFFFF7FEBF42
:1012E000FFF7FEBFFFF7FEBFFFF7FEBFFFF7FEBF32
:0C12F000FFF7FEBFFFF7FEBFFFF7FEBFD9
:0400000508001221BC
:00000001FF
