:020000040800F2
:10000000104D0020250C0008550C0008590C000864
:100010005D0C0008610C0008650C00080000000081
:100020000000000000000000000000000B090008B4
:10003000690C000800000000C508000865080008F9
:100040006D0C0008710C0008750C0008790C000894
:100050007D0C0008810C0008850C0008890C000844
:100060008D0C0008910C0008950C0008990C0008F4
:100070009D0C0008A10C0008A50C0008A90C0008A4
:10008000AD0C0008B10C0008B50C0008B90C000854
:10009000BD0C0008C10C0008C50C0008C90C000804
:1000A000CD0C0008D10C0008D50C0008D90C0008B4
:1000B000DD0C0008E10C0008E50C0008E90C000864
:1000C000ED0C0008F10C0008F50C0008F90C000814
:1000D000FD0C0008010D0008050D0008090D0008C1
:1000E0000D0D0008110D0008150D00082DE9F8434D
:1000F00084B00700884616009946300080B2800020
:1001000000F0EEFA0500002D0BD04C2000F0E8FACC
:100110000400002C01D0256304E0280000F00CFB53
:1001200000E00024002C12D00020039002940D98CF
:1001300001900C9800904B46B6B232004146380010
:1001400000F00AF8200000F052F8012001E05FF012
:10015000FF3005B0BDE8F0832DE9F84305001E002F
:100160000A9F386B00EB8200B0F104085FEAD80800
:100170005FEAC808002910D0002200E0521C102AB3
:1001800007D2885C07EB020383F83400885C002800
:10019000F4D1002087F8430002E0002087F8340003
:1001A000DDF82090B9F1050F01D35FF00409099C37
:1001B000C7F82C90381D00F0D6FA17F1180000F09F
:1001C000D2FA3F61D9F10509C7F818907F62002083
:1001D0007864002087F8480032002900404600F08B
:1001E000FFFA3860002C00D02760BDE8F18338B5F5
:1001F000040000F020FBDFF808140868401C0860C9
:10020000DFF800542868002806D12C60086801280F
:100210000DD100F094F90AE0DFF8EC030068002843
:1002200005D1E06A2968C96A884200D32C60DFF8EA
:10023000DC030168491C0160DFF8D4130A6801235C
:10024000E06A83401A430A60211DDFF8C823E36A8D
:100250001420434302EB030000F088FA00F0F7FAA1
:10026000DFF8A403006800280DD02868C06AE16A9E
:10027000884208D25FF08050DFF8A8130860BFF30F
:100280004F8FBFF36F8F31BD10B504000020002CDD
:1002900007D000F039F80021200000F0C9F900F083
:1002A00039F8002808D15FF08050DFF87C1308602F
:1002B000BFF34F8FBFF36F8F10BDE0B5DFF8EC03D6
:1002C00001900020009000238022DFF8E4130FF259
:1002D0004D20FFF70BFF012815D1BF2080F31188B7
:1002E000BFF34F8FBFF36F8F5FF0FF30DFF8C413A2
:1002F00008600120DFF8101308600020DFF8B81351
:10030000086000F085FA07BDDFF89C030168491C0E
:100310000160704770B50024002500F08CFADFF80A
:1003200088030168491E01600068002855D1DFF884
:10033000D0020068002826D14FE0C868C46814F1D4
:10034000180000F03AFA201D00F037FADFF8C0126A
:100350000A680123E06A83401A430A60211DDFF81E
:10036000B422E36A1420434302EB030000F0FEF9D9
:10037000E06ADFF890120968C96A884203D3012055
:10038000DFF838130860DFF81C1308680028D4D1A0
:10039000002C01D000F020F9DFF824633468002C31
:1003A0000CD000F01EF8002803D00120DFF80C1359
:1003B0000860641E002CF4D100203060DFF8FC02DD
:1003C0000068002809D001255FF08050DFF858123E
:1003D0000860BFF34F8FBFF36F8F00F038FA28002B
:1003E00070BDF8B50025DFF8C0020068002863D1B1
:1003F000DFF82C020468641C0460002C0ED1DFF8C6
:10040000C4020168DFF8C022136803601160DFF8DE
:10041000BC020168491C016000F0DEF8DFF894625C
:100420003068844231D323E0381D00F0C6F9B86A41
:10043000002803D017F1180000F0BFF9DFF8D01141
:100440000A680123F86A83401A430A60391DDFF8FD
:10045000C421FB6A1420434302EB030000F086F939
:10046000F86ADFF8A0110968C96A884200D301253B
:10047000DFF8501208680068002819D00868C068C2
:10048000C76878688442CFD23060DFF878010068AE
:10049000DFF88011C26A142042438858022800D332
:1004A0000125DFF81802006800280AD0012508E0BD
:1004B0005FF0FF303060E8E7DFF804020168491CB4
:1004C00001602800F2BDDFF8E0010068002804D0D8
:1004D0000120DFF8E81108601FE00020DFF8DC11E0
:1004E00008604B480068B0FA80F1D1F11F01DFF8D5
:1004F00024211420414302EB010041684968416016
:10050000416810F10802914202D141684968416096
:100510004068C068DFF888110860704780B500F057
:1005200037F83C4800680228F9D35FF08050DFF8C4
:10053000F8100860BFF34F8FBFF36F8FEFE738B548
:10054000002407E03348142101FB04F1084400F0C3
:10055000FBF8641C052CF5D3DFF87441200000F093
:10056000F3F8DFF87051280000F0EEF8DFF83401FE
:1005700000F0EAF8284800F0E7F8DFF8B00000F0F3
:10058000E3F8DFF840010460DFF83C01056031BDAD
:1005900038B513E000F04FF91F48C068C468201D4B
:1005A00000F00BF916480168491E01602868401EDA
:1005B000286000F04CF9200000F005F8174D28687D
:1005C0000028E7D131BD10B50400206B00F0B4F86D
:1005D000200000F0B1F810BDDFF8E81008680068EE
:1005E000002805D15FF0FF30DFF8C810086006E092
:1005F0000868C068C0684068DFF8B81008607047D5
:10060000E4440020D4440020F044002000450020B1
:10061000EC44002004440020A4440020E0440020D6
:10062000E844002004ED00E004ED00E0B8440020C0
:10063000F8B505000C0020480668194F3868001D01
:1006400000F0BBF8002807D1386823490A68012365
:10065000C06A83409A430A6015F1010F07D1002C4C
:1006600005D03868011D1D4800F080F816E0AD196E
:1006700038684560B54206D23868011D12480068E6
:1006800000F080F80AE03868011D0E48006800F0AC
:1006900079F8084801688D4200D20560F1BD00007C
:1006A000D4440020904400200C4500200845002040
:1006B0004C0C000804450020E8440020F8440020C9
:1006C000F4440020D8440020DC440020FC440020F6
:1006D000684400207C440020EC440020B844002002
:1006E00038B50500002415F0070F04D015F10800F7
:1006F00015F00705451BFFF707FE1049086800289D
:1007000003D10F48C008C00008600E480268AA184C
:1007100044F2F8339A420BD202680368EB189A420B
:1007200006D20968026801EB020401686D180560D1
:10073000FFF7F0FD200032BD70470000D0440020DC
:100740000C000020CC44002010F1080141605FF053
:10075000FF31816010F10801C16010F108010161F1
:1007600000210160704700210161704742684A60C2
:1007700093688B6093685960916008610168491CB7
:100780000160704710B40B6813F1010F01D10269C9
:1007900007E010F1080200E0526854682468A342A0
:1007A000FAD253684B604B6899608A605160086167
:1007B0000168491C016010BC704701698268436888
:1007C0009A60426883685A604A68824201D18268AE
:1007D0004A60002202610868401E0860086870478D
:1007E000001F5FF080730360001F4908490001602B
:1007F000001F0FF20D0101601438026020387047AD
:10080000BF2080F31188BFF34F8FBFF36F8FFEE7D8
:1008100080B51F48016851F47F010160016851F003
:100820007F41016000F03AF800201A49086000F0AA
:100830007CF8002002BDBF2080F31188BFF34F8FEA
:10084000BFF36F8F13480168491C0160704711485E
:100850000168491E01600068002802D1002080F371
:100860001188704780B5BF2080F31188BFF34F8F88
:10087000BFF36F8FFFF7B5FD002803D05FF0805006
:1008800005490860002080F3118801BD00000000C8
:1008900020ED00E00000002004ED00E0054800210C
:1008A00001600021044A11600449054A11600721D2
:1008B0000160704710E000E018E000E03F1901001F
:1008C00014E000E0EFF30980BFF36F8F1D4B1A684F
:1008D00020E9F00F106008B54FF0BF0080F31188D9
:1008E000BFF34F8FBFF36F8FFFF7EDFD4FF00000A9
:1008F00080F31188BDE8084019680868B0E8F00F77
:1009000080F30988BFF36F8F70470E4B1968086832
:10091000B0E8F00F80F30988BFF36F8F4FF000004D
:1009200080F311884EF00D0E70470748006800688C
:1009300080F3088862B661B6BFF34F8FBFF36F8F45
:1009400000DF0000D444002008ED00E081B036480C
:10095000016851F48031016001688903FCD5334995
:100960000A6852F4E8120A60026852F0807202606B
:100970000022009207E0009A42F201039A421EDA36
:10098000009A521C009202689201F4D5284A13681A
:1009900053F0020313600A6852F480620A600A6826
:1009A00052F002020A600A6812F00C02082AFAD118
:1009B0000168490849000160002001B070470168E2
:1009C00031F480310160016831F0807101600220F2
:1009D000F3E71548016851F0010101600168016801
:1009E00031F0F80151F080010160104900220A60E5
:1009F0000A6812F00C0FFBD1016831F080710160C0
:100A000001688901FCD4016831F41021016001689A
:100A10008903FCD4016831F4802101600548016834
:100A200051F08071016070470010024004100240D4
:100A300000200240241002400F49086850F00100D5
:100A400008600E4A13680E48034013600B680D4897
:100A500003400B60086830F480200860106830F4B0
:100A6000FE0010605FF41F00074908605FF000603F
:100A70000649086070470000001002400410024060
:100A80000000FFF8FFFFF6FE0810024008ED00E04E
:100A9000E0B5FFF79EFFFFF759FF00280FD100F0E8
:100AA00021F80020019001200090002380220549B8
:100AB0000FF21500FFF71AFBFFF7FFFBFEE7002020
:100AC0000EBD0000340C000880B500F01AF84FF499
:100AD0007A70FFF7D9FB00F019F84FF47A70FFF73E
:100AE000D3FBF2E70C48016851F0100101600B489C
:100AF000016831F470010160016851F40011016076
:100B000070474FF400500649086070474FF400509A
:100B100004490860704700001810024004100140AA
:100B2000101001401410014030B4002513E050F8BB
:100B3000042BD30744BFA9F101039A18091F042904
:100B400042F8045BFAD213468C0744BF15809B1C05
:100B5000C90748BF1D7050F8041B0029E7D130BCFD
:100B6000704730B40EE00268436802440830DC0786
:100B700044BFA9F10104E31852F8045B43F8045B95
:100B8000091FF9D150F8041B0029ECD130BC704783
:100B900010B5074979441831064C7C44163404E0FA
:100BA0000A68081D114488470146A142F8D110BDCA
:100BB000080000002800000071FFFFFF0C45000046
:100BC00004000020000000009BFFFFFF0400000065
:100BD00048010000000000200000000000F00DF8B7
:100BE000002801D0FFF7D4FFAFF300800020AFF35F
:100BF0000080FFF74DFF00F002F80120704700F081
:100C000001B800000746384600F002F8FBE7000094
:100C100080B5AFF30080024A11001820ABBEFBE79D
:100C2000260002000148804701480047390A0008B1
:100C3000410C00084D435520776F726B65640000CE
:100C4000AFF30080AFF30080FFF7C8FF49444C4585
:100C500000000000FFF7FEBFFFF7FEBFFFF7FEBF7B
:100C6000FFF7FEBFFFF7FEBFFFF7FEBFFFF7FEBFB8
:100C7000FFF7FEBFFFF7FEBFFFF7FEBFFFF7FEBFA8
:100C8000FFF7FEBFFFF7FEBFFFF7FEBFFFF7FEBF98
:100C9000FFF7FEBFFFF7FEBFFFF7FEBFFFF7FEBF88
:100CA000FFF7FEBFFFF7FEBFFFF7FEBFFFF7FEBF78
:100CB000FFF7FEBFFFF7FEBFFFF7FEBFFFF7FEBF68
:100CC000FFF7FEBFFFF7FEBFFFF7FEBFFFF7FEBF58
:100CD000FFF7FEBFFFF7FEBFFFF7FEBFFFF7FEBF48
:100CE000FFF7FEBFFFF7FEBFFFF7FEBFFFF7FEBF38
:100CF000FFF7FEBFFFF7FEBFFFF7FEBFFFF7FEBF28
:100D0000FFF7FEBFFFF7FEBFFFF7FEBFFFF7FEBF17
:0C0D1000FFF7FEBFFFF7FEBFAAAAAAAAC9
:0400000508000C41A2
:00000001FF
